{
  "_format": "hh-sol-artifact-1",
  "contractName": "VoicePlatform",
  "sourceName": "contracts/VoicePlatform.sol",
  "abi": [
    {
      "inputs": [],
      "stateMutability": "nonpayable",
      "type": "constructor"
    },
    {
      "anonymous": false,
      "inputs": [
        {
          "indexed": false,
          "internalType": "uint256",
          "name": "id",
          "type": "uint256"
        },
        {
          "indexed": false,
          "internalType": "bool",
          "name": "isPublic",
          "type": "bool"
        },
        {
          "indexed": false,
          "internalType": "bool",
          "name": "flagCompleted",
          "type": "bool"
        }
      ],
      "name": "NewChangePublic",
      "type": "event"
    },
    {
      "anonymous": false,
      "inputs": [
        {
          "indexed": false,
          "internalType": "uint256",
          "name": "id",
          "type": "uint256"
        },
        {
          "indexed": false,
          "internalType": "uint256",
          "name": "totallikes",
          "type": "uint256"
        },
        {
          "indexed": false,
          "internalType": "bool",
          "name": "flagCompleted",
          "type": "bool"
        }
      ],
      "name": "NewLike",
      "type": "event"
    },
    {
      "anonymous": false,
      "inputs": [
        {
          "indexed": false,
          "internalType": "uint256",
          "name": "id",
          "type": "uint256"
        },
        {
          "indexed": true,
          "internalType": "address",
          "name": "from",
          "type": "address"
        },
        {
          "indexed": false,
          "internalType": "string",
          "name": "username",
          "type": "string"
        },
        {
          "indexed": false,
          "internalType": "string",
          "name": "gender",
          "type": "string"
        },
        {
          "indexed": false,
          "internalType": "string",
          "name": "genre",
          "type": "string"
        },
        {
          "indexed": false,
          "internalType": "string",
          "name": "voice",
          "type": "string"
        },
        {
          "indexed": false,
          "internalType": "string",
          "name": "title",
          "type": "string"
        },
        {
          "indexed": false,
          "internalType": "string",
          "name": "description",
          "type": "string"
        },
        {
          "indexed": false,
          "internalType": "bool",
          "name": "isPublic",
          "type": "bool"
        },
        {
          "indexed": false,
          "internalType": "bool",
          "name": "haveAuthorityToComment",
          "type": "bool"
        },
        {
          "indexed": false,
          "internalType": "uint256",
          "name": "timestamp",
          "type": "uint256"
        },
        {
          "indexed": false,
          "internalType": "uint256",
          "name": "totallikes",
          "type": "uint256"
        }
      ],
      "name": "NewVoice",
      "type": "event"
    },
    {
      "inputs": [
        {
          "internalType": "uint256",
          "name": "_num",
          "type": "uint256"
        }
      ],
      "name": "changePublic",
      "outputs": [],
      "stateMutability": "nonpayable",
      "type": "function"
    },
    {
      "inputs": [
        {
          "internalType": "string",
          "name": "_username",
          "type": "string"
        }
      ],
      "name": "edit",
      "outputs": [],
      "stateMutability": "nonpayable",
      "type": "function"
    },
    {
      "inputs": [],
      "name": "getAllVoices",
      "outputs": [
        {
          "components": [
            {
              "internalType": "uint256",
              "name": "id",
              "type": "uint256"
            },
            {
              "internalType": "address",
              "name": "poster",
              "type": "address"
            },
            {
              "internalType": "string",
              "name": "username",
              "type": "string"
            },
            {
              "internalType": "string",
              "name": "gender",
              "type": "string"
            },
            {
              "internalType": "string",
              "name": "genre",
              "type": "string"
            },
            {
              "internalType": "string",
              "name": "voice",
              "type": "string"
            },
            {
              "internalType": "string",
              "name": "title",
              "type": "string"
            },
            {
              "internalType": "string",
              "name": "description",
              "type": "string"
            },
            {
              "internalType": "bool",
              "name": "isPublic",
              "type": "bool"
            },
            {
              "internalType": "bool",
              "name": "haveAuthorityToComment",
              "type": "bool"
            },
            {
              "internalType": "uint256",
              "name": "timestamp",
              "type": "uint256"
            },
            {
              "internalType": "uint256",
              "name": "totallikes",
              "type": "uint256"
            }
          ],
          "internalType": "struct VoicePlatform.Voice[]",
          "name": "",
          "type": "tuple[]"
        }
      ],
      "stateMutability": "view",
      "type": "function"
    },
    {
      "inputs": [
        {
          "internalType": "uint256",
          "name": "_num",
          "type": "uint256"
        }
      ],
      "name": "like",
      "outputs": [],
      "stateMutability": "nonpayable",
      "type": "function"
    },
    {
      "inputs": [
        {
          "internalType": "string",
          "name": "_username",
          "type": "string"
        },
        {
          "internalType": "string",
          "name": "_gender",
          "type": "string"
        },
        {
          "internalType": "string",
          "name": "_genre",
          "type": "string"
        },
        {
          "internalType": "string",
          "name": "_voice",
          "type": "string"
        },
        {
          "internalType": "string",
          "name": "_title",
          "type": "string"
        },
        {
          "internalType": "string",
          "name": "_description",
          "type": "string"
        },
        {
          "internalType": "bool",
          "name": "_isPublic",
          "type": "bool"
        },
        {
          "internalType": "bool",
          "name": "_haveAuthorityToComment",
          "type": "bool"
        }
      ],
      "name": "post",
      "outputs": [],
      "stateMutability": "nonpayable",
      "type": "function"
    },
    {
      "inputs": [
        {
          "internalType": "string",
          "name": "_username",
          "type": "string"
        }
      ],
      "name": "register",
      "outputs": [],
      "stateMutability": "nonpayable",
      "type": "function"
    }
  ],
  "bytecode": "0x60806040523480156200001157600080fd5b506200004160405180606001604052806023815260200162002090602391396200004760201b62000e251760201c565b620001d1565b620000e7816040516024016200005e9190620001ad565b6040516020818303038152906040527f41304fac000000000000000000000000000000000000000000000000000000007bffffffffffffffffffffffffffffffffffffffffffffffffffffffff19166020820180517bffffffffffffffffffffffffffffffffffffffffffffffffffffffff8381831617835250505050620000ea60201b60201c565b50565b60008151905060006a636f6e736f6c652e6c6f679050602083016000808483855afa5050505050565b600081519050919050565b600082825260208201905092915050565b60005b838110156200014f57808201518184015260208101905062000132565b60008484015250505050565b6000601f19601f8301169050919050565b6000620001798262000113565b6200018581856200011e565b9350620001978185602086016200012f565b620001a2816200015b565b840191505092915050565b60006020820190508181036000830152620001c981846200016c565b905092915050565b611eaf80620001e16000396000f3fe608060405234801561001057600080fd5b50600436106100625760003560e01c80639285708714610067578063b26f1f6f14610083578063d7878bf5146100a1578063e42aafd1146100bd578063e82935da146100d9578063f2c298be146100f5575b600080fd5b610081600480360381019061007c91906112e1565b610111565b005b61008b610164565b6040516100989190611607565b60405180910390f35b6100bb60048036038101906100b69190611655565b6105da565b005b6100d760048036038101906100d291906116ae565b6106e0565b005b6100f360048036038101906100ee9190611655565b610a49565b005b61010f600480360381019061010a91906112e1565b610c14565b005b80600360003373ffffffffffffffffffffffffffffffffffffffff1673ffffffffffffffffffffffffffffffffffffffff16815260200190815260200160002060020190816101609190611a18565b5050565b60606007805480602002602001604051908101604052809291908181526020016000905b828210156105d157838290600052602060002090600b020160405180610180016040529081600082015481526020016001820160009054906101000a900473ffffffffffffffffffffffffffffffffffffffff1673ffffffffffffffffffffffffffffffffffffffff1673ffffffffffffffffffffffffffffffffffffffff16815260200160028201805461021c9061183b565b80601f01602080910402602001604051908101604052809291908181526020018280546102489061183b565b80156102955780601f1061026a57610100808354040283529160200191610295565b820191906000526020600020905b81548152906001019060200180831161027857829003601f168201915b505050505081526020016003820180546102ae9061183b565b80601f01602080910402602001604051908101604052809291908181526020018280546102da9061183b565b80156103275780601f106102fc57610100808354040283529160200191610327565b820191906000526020600020905b81548152906001019060200180831161030a57829003601f168201915b505050505081526020016004820180546103409061183b565b80601f016020809104026020016040519081016040528092919081815260200182805461036c9061183b565b80156103b95780601f1061038e576101008083540402835291602001916103b9565b820191906000526020600020905b81548152906001019060200180831161039c57829003601f168201915b505050505081526020016005820180546103d29061183b565b80601f01602080910402602001604051908101604052809291908181526020018280546103fe9061183b565b801561044b5780601f106104205761010080835404028352916020019161044b565b820191906000526020600020905b81548152906001019060200180831161042e57829003601f168201915b505050505081526020016006820180546104649061183b565b80601f01602080910402602001604051908101604052809291908181526020018280546104909061183b565b80156104dd5780601f106104b2576101008083540402835291602001916104dd565b820191906000526020600020905b8154815290600101906020018083116104c057829003601f168201915b505050505081526020016007820180546104f69061183b565b80601f01602080910402602001604051908101604052809291908181526020018280546105229061183b565b801561056f5780601f106105445761010080835404028352916020019161056f565b820191906000526020600020905b81548152906001019060200180831161055257829003601f168201915b505050505081526020016008820160009054906101000a900460ff161515151581526020016008820160019054906101000a900460ff1615151515815260200160098201548152602001600a8201548152505081526020019060010190610188565b50505050905090565b600781815481106105ee576105ed611aea565b5b90600052602060002090600b020160080160009054906101000a900460ff16156007828154811061062257610621611aea565b5b90600052602060002090600b020160080160006101000a81548160ff0219169083151502179055507fd517623781a3d33983ed048b4f0c439106c0ae5ecd946bc2ac41e5d736fb8bd66007828154811061067f5761067e611aea565b5b90600052602060002090600b020160000154600783815481106106a5576106a4611aea565b5b90600052602060002090600b020160080160009054906101000a900460ff1660016040516106d593929190611b37565b60405180910390a150565b600260003373ffffffffffffffffffffffffffffffffffffffff1673ffffffffffffffffffffffffffffffffffffffff16815260200190815260200160002060009054906101000a900460ff16156107405761073b88610111565b61074a565b61074988610c14565b5b60006107566000610ebe565b90506107996040518060400160405280601881526020017f257320706f7374656420772f20766f6963652025732025730000000000000000815250338787610ecc565b60076040518061018001604052808381526020013373ffffffffffffffffffffffffffffffffffffffff1681526020018b81526020018a815260200189815260200188815260200187815260200186815260200185151581526020018415158152602001428152602001600081525090806001815401808255809150506001900390600052602060002090600b02016000909190919091506000820151816000015560208201518160010160006101000a81548173ffffffffffffffffffffffffffffffffffffffff021916908373ffffffffffffffffffffffffffffffffffffffff16021790555060408201518160020190816108979190611a18565b5060608201518160030190816108ad9190611a18565b5060808201518160040190816108c39190611a18565b5060a08201518160050190816108d99190611a18565b5060c08201518160060190816108ef9190611a18565b5060e08201518160070190816109059190611a18565b506101008201518160080160006101000a81548160ff0219169083151502179055506101208201518160080160016101000a81548160ff021916908315150217905550610140820151816009015561016082015181600a015550506000600560003373ffffffffffffffffffffffffffffffffffffffff1673ffffffffffffffffffffffffffffffffffffffff16815260200190815260200160002090508381600001600084815260200190815260200160002060006101000a81548160ff0219169083151502179055503373ffffffffffffffffffffffffffffffffffffffff167f75db1b521d07c3a0eb3a1438b2ac8ca84d42233f4f88b8b9382a209c07dcc825838c8c8c8c8c8c8c8c426000604051610a2b9b9a99989796959493929190611bb8565b60405180910390a2610a3d6000610f6e565b50505050505050505050565b610a886040518060400160405280601b81526020017f2573206c696b65656420772f2061742074686520636f6d6d656e74000000000081525033610f84565b610aec6040518060400160405280601181526020017f746f74616c206c696b657320697320256900000000000000000000000000000081525060078381548110610ad557610ad4611aea565b5b90600052602060002090600b0201600a0154611020565b60078181548110610b0057610aff611aea565b5b90600052602060002090600b0201600a016000815480929190610b2290611cbc565b9190505550610b8b6040518060400160405280601181526020017f746f74616c206c696b657320697320256900000000000000000000000000000081525060078381548110610b7457610b73611aea565b5b90600052602060002090600b0201600a0154611020565b7f8d6aaa7c4a328f24ad373823b75962d81ec0f36ddb11e76dc5c09655737cd4f260078281548110610bc057610bbf611aea565b5b90600052602060002090600b02016000015460078381548110610be657610be5611aea565b5b90600052602060002090600b0201600a01546001604051610c0993929190611d04565b60405180910390a150565b6000610c206001610ebe565b9050610c98336040518060400160405280600b81526020017f20706f7374656420772f20000000000000000000000000000000000000000000815250836040518060400160405280600781526020017f20646174617320000000000000000000000000000000000000000000000000008152506110bc565b610ca182610e25565b60405180606001604052808281526020013373ffffffffffffffffffffffffffffffffffffffff16815260200183815250600360003373ffffffffffffffffffffffffffffffffffffffff1673ffffffffffffffffffffffffffffffffffffffff1681526020019081526020016000206000820151816000015560208201518160010160006101000a81548173ffffffffffffffffffffffffffffffffffffffff021916908373ffffffffffffffffffffffffffffffffffffffff1602179055506040820151816002019081610d779190611a18565b509050506001600260003373ffffffffffffffffffffffffffffffffffffffff1673ffffffffffffffffffffffffffffffffffffffff16815260200190815260200160002060006101000a81548160ff02191690831515021790555080600460003373ffffffffffffffffffffffffffffffffffffffff1673ffffffffffffffffffffffffffffffffffffffff16815260200190815260200160002081905550610e216001610f6e565b5050565b610ebb81604051602401610e399190611d3b565b6040516020818303038152906040527f41304fac000000000000000000000000000000000000000000000000000000007bffffffffffffffffffffffffffffffffffffffffffffffffffffffff19166020820180517bffffffffffffffffffffffffffffffffffffffffffffffffffffffff838183161783525050505061115e565b50565b600081600001549050919050565b610f6884848484604051602401610ee69493929190611d6c565b6040516020818303038152906040527f245986f2000000000000000000000000000000000000000000000000000000007bffffffffffffffffffffffffffffffffffffffffffffffffffffffff19166020820180517bffffffffffffffffffffffffffffffffffffffffffffffffffffffff838183161783525050505061115e565b50505050565b6001816000016000828254019250508190555050565b61101c8282604051602401610f9a929190611dc6565b6040516020818303038152906040527f319af333000000000000000000000000000000000000000000000000000000007bffffffffffffffffffffffffffffffffffffffffffffffffffffffff19166020820180517bffffffffffffffffffffffffffffffffffffffffffffffffffffffff838183161783525050505061115e565b5050565b6110b88282604051602401611036929190611df6565b6040516020818303038152906040527fb60e72cc000000000000000000000000000000000000000000000000000000007bffffffffffffffffffffffffffffffffffffffffffffffffffffffff19166020820180517bffffffffffffffffffffffffffffffffffffffffffffffffffffffff838183161783525050505061115e565b5050565b611158848484846040516024016110d69493929190611e26565b6040516020818303038152906040527f448830a8000000000000000000000000000000000000000000000000000000007bffffffffffffffffffffffffffffffffffffffffffffffffffffffff19166020820180517bffffffffffffffffffffffffffffffffffffffffffffffffffffffff838183161783525050505061115e565b50505050565b60008151905060006a636f6e736f6c652e6c6f679050602083016000808483855afa5050505050565b6000604051905090565b600080fd5b600080fd5b600080fd5b600080fd5b6000601f19601f8301169050919050565b7f4e487b7100000000000000000000000000000000000000000000000000000000600052604160045260246000fd5b6111ee826111a5565b810181811067ffffffffffffffff8211171561120d5761120c6111b6565b5b80604052505050565b6000611220611187565b905061122c82826111e5565b919050565b600067ffffffffffffffff82111561124c5761124b6111b6565b5b611255826111a5565b9050602081019050919050565b82818337600083830152505050565b600061128461127f84611231565b611216565b9050828152602081018484840111156112a05761129f6111a0565b5b6112ab848285611262565b509392505050565b600082601f8301126112c8576112c761119b565b5b81356112d8848260208601611271565b91505092915050565b6000602082840312156112f7576112f6611191565b5b600082013567ffffffffffffffff81111561131557611314611196565b5b611321848285016112b3565b91505092915050565b600081519050919050565b600082825260208201905092915050565b6000819050602082019050919050565b6000819050919050565b61136981611356565b82525050565b600073ffffffffffffffffffffffffffffffffffffffff82169050919050565b600061139a8261136f565b9050919050565b6113aa8161138f565b82525050565b600081519050919050565b600082825260208201905092915050565b60005b838110156113ea5780820151818401526020810190506113cf565b60008484015250505050565b6000611401826113b0565b61140b81856113bb565b935061141b8185602086016113cc565b611424816111a5565b840191505092915050565b60008115159050919050565b6114448161142f565b82525050565b6000610180830160008301516114636000860182611360565b50602083015161147660208601826113a1565b506040830151848203604086015261148e82826113f6565b915050606083015184820360608601526114a882826113f6565b915050608083015184820360808601526114c282826113f6565b91505060a083015184820360a08601526114dc82826113f6565b91505060c083015184820360c08601526114f682826113f6565b91505060e083015184820360e086015261151082826113f6565b91505061010083015161152761010086018261143b565b5061012083015161153c61012086018261143b565b50610140830151611551610140860182611360565b50610160830151611566610160860182611360565b508091505092915050565b600061157d838361144a565b905092915050565b6000602082019050919050565b600061159d8261132a565b6115a78185611335565b9350836020820285016115b985611346565b8060005b858110156115f557848403895281516115d68582611571565b94506115e183611585565b925060208a019950506001810190506115bd565b50829750879550505050505092915050565b600060208201905081810360008301526116218184611592565b905092915050565b61163281611356565b811461163d57600080fd5b50565b60008135905061164f81611629565b92915050565b60006020828403121561166b5761166a611191565b5b600061167984828501611640565b91505092915050565b61168b8161142f565b811461169657600080fd5b50565b6000813590506116a881611682565b92915050565b600080600080600080600080610100898b0312156116cf576116ce611191565b5b600089013567ffffffffffffffff8111156116ed576116ec611196565b5b6116f98b828c016112b3565b985050602089013567ffffffffffffffff81111561171a57611719611196565b5b6117268b828c016112b3565b975050604089013567ffffffffffffffff81111561174757611746611196565b5b6117538b828c016112b3565b965050606089013567ffffffffffffffff81111561177457611773611196565b5b6117808b828c016112b3565b955050608089013567ffffffffffffffff8111156117a1576117a0611196565b5b6117ad8b828c016112b3565b94505060a089013567ffffffffffffffff8111156117ce576117cd611196565b5b6117da8b828c016112b3565b93505060c06117eb8b828c01611699565b92505060e06117fc8b828c01611699565b9150509295985092959890939650565b7f4e487b7100000000000000000000000000000000000000000000000000000000600052602260045260246000fd5b6000600282049050600182168061185357607f821691505b6020821081036118665761186561180c565b5b50919050565b60008190508160005260206000209050919050565b60006020601f8301049050919050565b600082821b905092915050565b6000600883026118ce7fffffffffffffffffffffffffffffffffffffffffffffffffffffffffffffffff82611891565b6118d88683611891565b95508019841693508086168417925050509392505050565b6000819050919050565b600061191561191061190b84611356565b6118f0565b611356565b9050919050565b6000819050919050565b61192f836118fa565b61194361193b8261191c565b84845461189e565b825550505050565b600090565b61195861194b565b611963818484611926565b505050565b5b818110156119875761197c600082611950565b600181019050611969565b5050565b601f8211156119cc5761199d8161186c565b6119a684611881565b810160208510156119b5578190505b6119c96119c185611881565b830182611968565b50505b505050565b600082821c905092915050565b60006119ef600019846008026119d1565b1980831691505092915050565b6000611a0883836119de565b9150826002028217905092915050565b611a21826113b0565b67ffffffffffffffff811115611a3a57611a396111b6565b5b611a44825461183b565b611a4f82828561198b565b600060209050601f831160018114611a825760008415611a70578287015190505b611a7a85826119fc565b865550611ae2565b601f198416611a908661186c565b60005b82811015611ab857848901518255600182019150602085019450602081019050611a93565b86831015611ad55784890151611ad1601f8916826119de565b8355505b6001600288020188555050505b505050505050565b7f4e487b7100000000000000000000000000000000000000000000000000000000600052603260045260246000fd5b611b2281611356565b82525050565b611b318161142f565b82525050565b6000606082019050611b4c6000830186611b19565b611b596020830185611b28565b611b666040830184611b28565b949350505050565b600082825260208201905092915050565b6000611b8a826113b0565b611b948185611b6e565b9350611ba48185602086016113cc565b611bad816111a5565b840191505092915050565b600061016082019050611bce600083018e611b19565b8181036020830152611be0818d611b7f565b90508181036040830152611bf4818c611b7f565b90508181036060830152611c08818b611b7f565b90508181036080830152611c1c818a611b7f565b905081810360a0830152611c308189611b7f565b905081810360c0830152611c448188611b7f565b9050611c5360e0830187611b28565b611c61610100830186611b28565b611c6f610120830185611b19565b611c7d610140830184611b19565b9c9b505050505050505050505050565b7f4e487b7100000000000000000000000000000000000000000000000000000000600052601160045260246000fd5b6000611cc782611356565b91507fffffffffffffffffffffffffffffffffffffffffffffffffffffffffffffffff8203611cf957611cf8611c8d565b5b600182019050919050565b6000606082019050611d196000830186611b19565b611d266020830185611b19565b611d336040830184611b28565b949350505050565b60006020820190508181036000830152611d558184611b7f565b905092915050565b611d668161138f565b82525050565b60006080820190508181036000830152611d868187611b7f565b9050611d956020830186611d5d565b8181036040830152611da78185611b7f565b90508181036060830152611dbb8184611b7f565b905095945050505050565b60006040820190508181036000830152611de08185611b7f565b9050611def6020830184611d5d565b9392505050565b60006040820190508181036000830152611e108185611b7f565b9050611e1f6020830184611b19565b9392505050565b6000608082019050611e3b6000830187611d5d565b8181036020830152611e4d8186611b7f565b9050611e5c6040830185611b19565b8181036060830152611e6e8184611b7f565b90509594505050505056fea2646970667358221220b725e1955b05462d90edf056258b4e1aea71dd478a8c0644e3c27485501efcd264736f6c6343000811003354686973206973206d7920566f69636520506c6174666f726d20636f6e74726163742e",
  "linkReferences": {},
  "deployedLinkReferences": {}
}