{
  "_format": "hh-sol-artifact-1",
  "contractName": "VoicePlatform",
  "sourceName": "contracts/VoicePlatform.sol",
  "abi": [
    {
      "inputs": [],
      "stateMutability": "nonpayable",
      "type": "constructor"
    },
    {
      "anonymous": false,
      "inputs": [
        {
          "indexed": false,
          "internalType": "uint256",
          "name": "id",
          "type": "uint256"
        },
        {
          "indexed": false,
          "internalType": "bool",
          "name": "isPublic",
          "type": "bool"
        },
        {
          "indexed": false,
          "internalType": "bool",
          "name": "flagCompleted",
          "type": "bool"
        }
      ],
      "name": "NewChangePublic",
      "type": "event"
    },
    {
      "anonymous": false,
      "inputs": [
        {
          "indexed": false,
          "internalType": "uint256",
          "name": "id",
          "type": "uint256"
        },
        {
          "indexed": true,
          "internalType": "address",
          "name": "from",
          "type": "address"
        },
        {
          "indexed": false,
          "internalType": "string",
          "name": "username",
          "type": "string"
        },
        {
          "indexed": false,
          "internalType": "string",
          "name": "gender",
          "type": "string"
        },
        {
          "indexed": false,
          "internalType": "string",
          "name": "genre",
          "type": "string"
        },
        {
          "indexed": false,
          "internalType": "string",
          "name": "title",
          "type": "string"
        },
        {
          "indexed": false,
          "internalType": "string",
          "name": "description",
          "type": "string"
        },
        {
          "indexed": false,
          "internalType": "bool",
          "name": "isPublic",
          "type": "bool"
        },
        {
          "indexed": false,
          "internalType": "bool",
          "name": "haveAuthorityToComment",
          "type": "bool"
        }
      ],
      "name": "NewEditedVoice",
      "type": "event"
    },
    {
      "anonymous": false,
      "inputs": [
        {
          "indexed": false,
          "internalType": "uint256",
          "name": "id",
          "type": "uint256"
        },
        {
          "indexed": false,
          "internalType": "uint256",
          "name": "totallikes",
          "type": "uint256"
        },
        {
          "indexed": false,
          "internalType": "bool",
          "name": "flagCompleted",
          "type": "bool"
        }
      ],
      "name": "NewLike",
      "type": "event"
    },
    {
      "anonymous": false,
      "inputs": [
        {
          "indexed": false,
          "internalType": "uint256",
          "name": "id",
          "type": "uint256"
        },
        {
          "indexed": true,
          "internalType": "address",
          "name": "from",
          "type": "address"
        },
        {
          "indexed": false,
          "internalType": "string",
          "name": "username",
          "type": "string"
        },
        {
          "indexed": false,
          "internalType": "string",
          "name": "gender",
          "type": "string"
        },
        {
          "indexed": false,
          "internalType": "string",
          "name": "genre",
          "type": "string"
        },
        {
          "indexed": false,
          "internalType": "string",
          "name": "voice",
          "type": "string"
        },
        {
          "indexed": false,
          "internalType": "string",
          "name": "title",
          "type": "string"
        },
        {
          "indexed": false,
          "internalType": "string",
          "name": "description",
          "type": "string"
        },
        {
          "indexed": false,
          "internalType": "bool",
          "name": "isPublic",
          "type": "bool"
        },
        {
          "indexed": false,
          "internalType": "bool",
          "name": "haveAuthorityToComment",
          "type": "bool"
        },
        {
          "indexed": false,
          "internalType": "uint256",
          "name": "timestamp",
          "type": "uint256"
        },
        {
          "indexed": false,
          "internalType": "uint256",
          "name": "totallikes",
          "type": "uint256"
        }
      ],
      "name": "NewVoice",
      "type": "event"
    },
    {
      "inputs": [
        {
          "internalType": "uint256",
          "name": "_num",
          "type": "uint256"
        }
      ],
      "name": "changePublic",
      "outputs": [],
      "stateMutability": "nonpayable",
      "type": "function"
    },
    {
      "inputs": [
        {
          "internalType": "uint256",
          "name": "_num",
          "type": "uint256"
        },
        {
          "internalType": "string",
          "name": "_username",
          "type": "string"
        },
        {
          "internalType": "string",
          "name": "_gender",
          "type": "string"
        },
        {
          "internalType": "string",
          "name": "_genre",
          "type": "string"
        },
        {
          "internalType": "string",
          "name": "_title",
          "type": "string"
        },
        {
          "internalType": "string",
          "name": "_description",
          "type": "string"
        },
        {
          "internalType": "bool",
          "name": "_isPublic",
          "type": "bool"
        },
        {
          "internalType": "bool",
          "name": "_haveAuthorityToComment",
          "type": "bool"
        }
      ],
      "name": "edit",
      "outputs": [],
      "stateMutability": "nonpayable",
      "type": "function"
    },
    {
      "inputs": [
        {
          "internalType": "string",
          "name": "_username",
          "type": "string"
        }
      ],
      "name": "edit",
      "outputs": [],
      "stateMutability": "nonpayable",
      "type": "function"
    },
    {
      "inputs": [],
      "name": "getAllVoices",
      "outputs": [
        {
          "components": [
            {
              "internalType": "uint256",
              "name": "id",
              "type": "uint256"
            },
            {
              "internalType": "address",
              "name": "poster",
              "type": "address"
            },
            {
              "internalType": "string",
              "name": "username",
              "type": "string"
            },
            {
              "internalType": "string",
              "name": "gender",
              "type": "string"
            },
            {
              "internalType": "string",
              "name": "genre",
              "type": "string"
            },
            {
              "internalType": "string",
              "name": "voice",
              "type": "string"
            },
            {
              "internalType": "string",
              "name": "title",
              "type": "string"
            },
            {
              "internalType": "string",
              "name": "description",
              "type": "string"
            },
            {
              "internalType": "bool",
              "name": "isPublic",
              "type": "bool"
            },
            {
              "internalType": "bool",
              "name": "haveAuthorityToComment",
              "type": "bool"
            },
            {
              "internalType": "uint256",
              "name": "timestamp",
              "type": "uint256"
            },
            {
              "internalType": "uint256",
              "name": "totallikes",
              "type": "uint256"
            }
          ],
          "internalType": "struct VoicePlatform.Voice[]",
          "name": "",
          "type": "tuple[]"
        }
      ],
      "stateMutability": "view",
      "type": "function"
    },
    {
      "inputs": [
        {
          "internalType": "uint256",
          "name": "_num",
          "type": "uint256"
        }
      ],
      "name": "like",
      "outputs": [],
      "stateMutability": "nonpayable",
      "type": "function"
    },
    {
      "inputs": [
        {
          "internalType": "string",
          "name": "_username",
          "type": "string"
        },
        {
          "internalType": "string",
          "name": "_gender",
          "type": "string"
        },
        {
          "internalType": "string",
          "name": "_genre",
          "type": "string"
        },
        {
          "internalType": "string",
          "name": "_voice",
          "type": "string"
        },
        {
          "internalType": "string",
          "name": "_title",
          "type": "string"
        },
        {
          "internalType": "string",
          "name": "_description",
          "type": "string"
        },
        {
          "internalType": "bool",
          "name": "_isPublic",
          "type": "bool"
        },
        {
          "internalType": "bool",
          "name": "_haveAuthorityToComment",
          "type": "bool"
        }
      ],
      "name": "post",
      "outputs": [],
      "stateMutability": "nonpayable",
      "type": "function"
    },
    {
      "inputs": [
        {
          "internalType": "string",
          "name": "_username",
          "type": "string"
        }
      ],
      "name": "register",
      "outputs": [],
      "stateMutability": "nonpayable",
      "type": "function"
    }
  ],
  "bytecode": "0x60806040523480156200001157600080fd5b50620000416040518060600160405280602381526020016200253b602391396200004760201b620010ed1760201c565b620001d1565b620000e7816040516024016200005e9190620001ad565b6040516020818303038152906040527f41304fac000000000000000000000000000000000000000000000000000000007bffffffffffffffffffffffffffffffffffffffffffffffffffffffff19166020820180517bffffffffffffffffffffffffffffffffffffffffffffffffffffffff8381831617835250505050620000ea60201b60201c565b50565b60008151905060006a636f6e736f6c652e6c6f679050602083016000808483855afa5050505050565b600081519050919050565b600082825260208201905092915050565b60005b838110156200014f57808201518184015260208101905062000132565b60008484015250505050565b6000601f19601f8301169050919050565b6000620001798262000113565b6200018581856200011e565b9350620001978185602086016200012f565b620001a2816200015b565b840191505092915050565b60006020820190508181036000830152620001c981846200016c565b905092915050565b61235a80620001e16000396000f3fe608060405234801561001057600080fd5b506004361061007d5760003560e01c8063d7878bf51161005b578063d7878bf5146100d8578063e42aafd1146100f4578063e82935da14610110578063f2c298be1461012c5761007d565b80630c0d997914610082578063928570871461009e578063b26f1f6f146100ba575b600080fd5b61009c60048036038101906100979190611617565b610148565b005b6100b860048036038101906100b39190611759565b6103d9565b005b6100c261042c565b6040516100cf9190611a69565b60405180910390f35b6100f260048036038101906100ed9190611a8b565b6108a2565b005b61010e60048036038101906101099190611ab8565b6109a8565b005b61012a60048036038101906101259190611a8b565b610d11565b005b61014660048036038101906101419190611759565b610edc565b005b6101896040518060400160405280601881526020017f25732065646974656420772f20766f6963652025732025730000000000000000815250338686611186565b866007898154811061019e5761019d611c16565b5b90600052602060002090600b020160020190816101bb9190611e51565b5085600789815481106101d1576101d0611c16565b5b90600052602060002090600b020160030190816101ee9190611e51565b50846007898154811061020457610203611c16565b5b90600052602060002090600b020160040190816102219190611e51565b50836007898154811061023757610236611c16565b5b90600052602060002090600b020160060190816102549190611e51565b50826007898154811061026a57610269611c16565b5b90600052602060002090600b020160070190816102879190611e51565b50816007898154811061029d5761029c611c16565b5b90600052602060002090600b020160080160006101000a81548160ff02191690831515021790555080600789815481106102da576102d9611c16565b5b90600052602060002090600b020160080160016101000a81548160ff0219169083151502179055506000600560003373ffffffffffffffffffffffffffffffffffffffff1673ffffffffffffffffffffffffffffffffffffffff1681526020019081526020016000209050828160000160008b815260200190815260200160002060006101000a81548160ff0219169083151502179055503373ffffffffffffffffffffffffffffffffffffffff167fbe94ea38ad44e52ba048a0ddfaaf0d526afae9d247a8604463fd5a244f79f2a28a8a8a8a8a8a8a8a6040516103c6989796959493929190611f8b565b60405180910390a2505050505050505050565b80600360003373ffffffffffffffffffffffffffffffffffffffff1673ffffffffffffffffffffffffffffffffffffffff16815260200190815260200160002060020190816104289190611e51565b5050565b60606007805480602002602001604051908101604052809291908181526020016000905b8282101561089957838290600052602060002090600b020160405180610180016040529081600082015481526020016001820160009054906101000a900473ffffffffffffffffffffffffffffffffffffffff1673ffffffffffffffffffffffffffffffffffffffff1673ffffffffffffffffffffffffffffffffffffffff1681526020016002820180546104e490611c74565b80601f016020809104026020016040519081016040528092919081815260200182805461051090611c74565b801561055d5780601f106105325761010080835404028352916020019161055d565b820191906000526020600020905b81548152906001019060200180831161054057829003601f168201915b5050505050815260200160038201805461057690611c74565b80601f01602080910402602001604051908101604052809291908181526020018280546105a290611c74565b80156105ef5780601f106105c4576101008083540402835291602001916105ef565b820191906000526020600020905b8154815290600101906020018083116105d257829003601f168201915b5050505050815260200160048201805461060890611c74565b80601f016020809104026020016040519081016040528092919081815260200182805461063490611c74565b80156106815780601f1061065657610100808354040283529160200191610681565b820191906000526020600020905b81548152906001019060200180831161066457829003601f168201915b5050505050815260200160058201805461069a90611c74565b80601f01602080910402602001604051908101604052809291908181526020018280546106c690611c74565b80156107135780601f106106e857610100808354040283529160200191610713565b820191906000526020600020905b8154815290600101906020018083116106f657829003601f168201915b5050505050815260200160068201805461072c90611c74565b80601f016020809104026020016040519081016040528092919081815260200182805461075890611c74565b80156107a55780601f1061077a576101008083540402835291602001916107a5565b820191906000526020600020905b81548152906001019060200180831161078857829003601f168201915b505050505081526020016007820180546107be90611c74565b80601f01602080910402602001604051908101604052809291908181526020018280546107ea90611c74565b80156108375780601f1061080c57610100808354040283529160200191610837565b820191906000526020600020905b81548152906001019060200180831161081a57829003601f168201915b505050505081526020016008820160009054906101000a900460ff161515151581526020016008820160019054906101000a900460ff1615151515815260200160098201548152602001600a8201548152505081526020019060010190610450565b50505050905090565b600781815481106108b6576108b5611c16565b5b90600052602060002090600b020160080160009054906101000a900460ff1615600782815481106108ea576108e9611c16565b5b90600052602060002090600b020160080160006101000a81548160ff0219169083151502179055507fd517623781a3d33983ed048b4f0c439106c0ae5ecd946bc2ac41e5d736fb8bd66007828154811061094757610946611c16565b5b90600052602060002090600b0201600001546007838154811061096d5761096c611c16565b5b90600052602060002090600b020160080160009054906101000a900460ff16600160405161099d9392919061202c565b60405180910390a150565b600260003373ffffffffffffffffffffffffffffffffffffffff1673ffffffffffffffffffffffffffffffffffffffff16815260200190815260200160002060009054906101000a900460ff1615610a0857610a03886103d9565b610a12565b610a1188610edc565b5b6000610a1e6000611228565b9050610a616040518060400160405280601881526020017f257320706f7374656420772f20766f6963652025732025730000000000000000815250338787611186565b60076040518061018001604052808381526020013373ffffffffffffffffffffffffffffffffffffffff1681526020018b81526020018a815260200189815260200188815260200187815260200186815260200185151581526020018415158152602001428152602001600081525090806001815401808255809150506001900390600052602060002090600b02016000909190919091506000820151816000015560208201518160010160006101000a81548173ffffffffffffffffffffffffffffffffffffffff021916908373ffffffffffffffffffffffffffffffffffffffff1602179055506040820151816002019081610b5f9190611e51565b506060820151816003019081610b759190611e51565b506080820151816004019081610b8b9190611e51565b5060a0820151816005019081610ba19190611e51565b5060c0820151816006019081610bb79190611e51565b5060e0820151816007019081610bcd9190611e51565b506101008201518160080160006101000a81548160ff0219169083151502179055506101208201518160080160016101000a81548160ff021916908315150217905550610140820151816009015561016082015181600a015550506000600560003373ffffffffffffffffffffffffffffffffffffffff1673ffffffffffffffffffffffffffffffffffffffff16815260200190815260200160002090508381600001600084815260200190815260200160002060006101000a81548160ff0219169083151502179055503373ffffffffffffffffffffffffffffffffffffffff167f75db1b521d07c3a0eb3a1438b2ac8ca84d42233f4f88b8b9382a209c07dcc825838c8c8c8c8c8c8c8c426000604051610cf39b9a99989796959493929190612063565b60405180910390a2610d056000611236565b50505050505050505050565b610d506040518060400160405280601b81526020017f2573206c696b65656420772f2061742074686520636f6d6d656e7400000000008152503361124c565b610db46040518060400160405280601181526020017f746f74616c206c696b657320697320256900000000000000000000000000000081525060078381548110610d9d57610d9c611c16565b5b90600052602060002090600b0201600a01546112e8565b60078181548110610dc857610dc7611c16565b5b90600052602060002090600b0201600a016000815480929190610dea90612167565b9190505550610e536040518060400160405280601181526020017f746f74616c206c696b657320697320256900000000000000000000000000000081525060078381548110610e3c57610e3b611c16565b5b90600052602060002090600b0201600a01546112e8565b7f8d6aaa7c4a328f24ad373823b75962d81ec0f36ddb11e76dc5c09655737cd4f260078281548110610e8857610e87611c16565b5b90600052602060002090600b02016000015460078381548110610eae57610ead611c16565b5b90600052602060002090600b0201600a01546001604051610ed1939291906121af565b60405180910390a150565b6000610ee86001611228565b9050610f60336040518060400160405280600b81526020017f20706f7374656420772f20000000000000000000000000000000000000000000815250836040518060400160405280600781526020017f2064617461732000000000000000000000000000000000000000000000000000815250611384565b610f69826110ed565b60405180606001604052808281526020013373ffffffffffffffffffffffffffffffffffffffff16815260200183815250600360003373ffffffffffffffffffffffffffffffffffffffff1673ffffffffffffffffffffffffffffffffffffffff1681526020019081526020016000206000820151816000015560208201518160010160006101000a81548173ffffffffffffffffffffffffffffffffffffffff021916908373ffffffffffffffffffffffffffffffffffffffff160217905550604082015181600201908161103f9190611e51565b509050506001600260003373ffffffffffffffffffffffffffffffffffffffff1673ffffffffffffffffffffffffffffffffffffffff16815260200190815260200160002060006101000a81548160ff02191690831515021790555080600460003373ffffffffffffffffffffffffffffffffffffffff1673ffffffffffffffffffffffffffffffffffffffff168152602001908152602001600020819055506110e96001611236565b5050565b6111838160405160240161110191906121e6565b6040516020818303038152906040527f41304fac000000000000000000000000000000000000000000000000000000007bffffffffffffffffffffffffffffffffffffffffffffffffffffffff19166020820180517bffffffffffffffffffffffffffffffffffffffffffffffffffffffff8381831617835250505050611426565b50565b611222848484846040516024016111a09493929190612217565b6040516020818303038152906040527f245986f2000000000000000000000000000000000000000000000000000000007bffffffffffffffffffffffffffffffffffffffffffffffffffffffff19166020820180517bffffffffffffffffffffffffffffffffffffffffffffffffffffffff8381831617835250505050611426565b50505050565b600081600001549050919050565b6001816000016000828254019250508190555050565b6112e48282604051602401611262929190612271565b6040516020818303038152906040527f319af333000000000000000000000000000000000000000000000000000000007bffffffffffffffffffffffffffffffffffffffffffffffffffffffff19166020820180517bffffffffffffffffffffffffffffffffffffffffffffffffffffffff8381831617835250505050611426565b5050565b61138082826040516024016112fe9291906122a1565b6040516020818303038152906040527fb60e72cc000000000000000000000000000000000000000000000000000000007bffffffffffffffffffffffffffffffffffffffffffffffffffffffff19166020820180517bffffffffffffffffffffffffffffffffffffffffffffffffffffffff8381831617835250505050611426565b5050565b6114208484848460405160240161139e94939291906122d1565b6040516020818303038152906040527f448830a8000000000000000000000000000000000000000000000000000000007bffffffffffffffffffffffffffffffffffffffffffffffffffffffff19166020820180517bffffffffffffffffffffffffffffffffffffffffffffffffffffffff8381831617835250505050611426565b50505050565b60008151905060006a636f6e736f6c652e6c6f679050602083016000808483855afa5050505050565b6000604051905090565b600080fd5b600080fd5b6000819050919050565b61147681611463565b811461148157600080fd5b50565b6000813590506114938161146d565b92915050565b600080fd5b600080fd5b6000601f19601f8301169050919050565b7f4e487b7100000000000000000000000000000000000000000000000000000000600052604160045260246000fd5b6114ec826114a3565b810181811067ffffffffffffffff8211171561150b5761150a6114b4565b5b80604052505050565b600061151e61144f565b905061152a82826114e3565b919050565b600067ffffffffffffffff82111561154a576115496114b4565b5b611553826114a3565b9050602081019050919050565b82818337600083830152505050565b600061158261157d8461152f565b611514565b90508281526020810184848401111561159e5761159d61149e565b5b6115a9848285611560565b509392505050565b600082601f8301126115c6576115c5611499565b5b81356115d684826020860161156f565b91505092915050565b60008115159050919050565b6115f4816115df565b81146115ff57600080fd5b50565b600081359050611611816115eb565b92915050565b600080600080600080600080610100898b03121561163857611637611459565b5b60006116468b828c01611484565b985050602089013567ffffffffffffffff8111156116675761166661145e565b5b6116738b828c016115b1565b975050604089013567ffffffffffffffff8111156116945761169361145e565b5b6116a08b828c016115b1565b965050606089013567ffffffffffffffff8111156116c1576116c061145e565b5b6116cd8b828c016115b1565b955050608089013567ffffffffffffffff8111156116ee576116ed61145e565b5b6116fa8b828c016115b1565b94505060a089013567ffffffffffffffff81111561171b5761171a61145e565b5b6117278b828c016115b1565b93505060c06117388b828c01611602565b92505060e06117498b828c01611602565b9150509295985092959890939650565b60006020828403121561176f5761176e611459565b5b600082013567ffffffffffffffff81111561178d5761178c61145e565b5b611799848285016115b1565b91505092915050565b600081519050919050565b600082825260208201905092915050565b6000819050602082019050919050565b6117d781611463565b82525050565b600073ffffffffffffffffffffffffffffffffffffffff82169050919050565b6000611808826117dd565b9050919050565b611818816117fd565b82525050565b600081519050919050565b600082825260208201905092915050565b60005b8381101561185857808201518184015260208101905061183d565b60008484015250505050565b600061186f8261181e565b6118798185611829565b935061188981856020860161183a565b611892816114a3565b840191505092915050565b6118a6816115df565b82525050565b6000610180830160008301516118c560008601826117ce565b5060208301516118d8602086018261180f565b50604083015184820360408601526118f08282611864565b9150506060830151848203606086015261190a8282611864565b915050608083015184820360808601526119248282611864565b91505060a083015184820360a086015261193e8282611864565b91505060c083015184820360c08601526119588282611864565b91505060e083015184820360e08601526119728282611864565b91505061010083015161198961010086018261189d565b5061012083015161199e61012086018261189d565b506101408301516119b36101408601826117ce565b506101608301516119c86101608601826117ce565b508091505092915050565b60006119df83836118ac565b905092915050565b6000602082019050919050565b60006119ff826117a2565b611a0981856117ad565b935083602082028501611a1b856117be565b8060005b85811015611a575784840389528151611a3885826119d3565b9450611a43836119e7565b925060208a01995050600181019050611a1f565b50829750879550505050505092915050565b60006020820190508181036000830152611a8381846119f4565b905092915050565b600060208284031215611aa157611aa0611459565b5b6000611aaf84828501611484565b91505092915050565b600080600080600080600080610100898b031215611ad957611ad8611459565b5b600089013567ffffffffffffffff811115611af757611af661145e565b5b611b038b828c016115b1565b985050602089013567ffffffffffffffff811115611b2457611b2361145e565b5b611b308b828c016115b1565b975050604089013567ffffffffffffffff811115611b5157611b5061145e565b5b611b5d8b828c016115b1565b965050606089013567ffffffffffffffff811115611b7e57611b7d61145e565b5b611b8a8b828c016115b1565b955050608089013567ffffffffffffffff811115611bab57611baa61145e565b5b611bb78b828c016115b1565b94505060a089013567ffffffffffffffff811115611bd857611bd761145e565b5b611be48b828c016115b1565b93505060c0611bf58b828c01611602565b92505060e0611c068b828c01611602565b9150509295985092959890939650565b7f4e487b7100000000000000000000000000000000000000000000000000000000600052603260045260246000fd5b7f4e487b7100000000000000000000000000000000000000000000000000000000600052602260045260246000fd5b60006002820490506001821680611c8c57607f821691505b602082108103611c9f57611c9e611c45565b5b50919050565b60008190508160005260206000209050919050565b60006020601f8301049050919050565b600082821b905092915050565b600060088302611d077fffffffffffffffffffffffffffffffffffffffffffffffffffffffffffffffff82611cca565b611d118683611cca565b95508019841693508086168417925050509392505050565b6000819050919050565b6000611d4e611d49611d4484611463565b611d29565b611463565b9050919050565b6000819050919050565b611d6883611d33565b611d7c611d7482611d55565b848454611cd7565b825550505050565b600090565b611d91611d84565b611d9c818484611d5f565b505050565b5b81811015611dc057611db5600082611d89565b600181019050611da2565b5050565b601f821115611e0557611dd681611ca5565b611ddf84611cba565b81016020851015611dee578190505b611e02611dfa85611cba565b830182611da1565b50505b505050565b600082821c905092915050565b6000611e2860001984600802611e0a565b1980831691505092915050565b6000611e418383611e17565b9150826002028217905092915050565b611e5a8261181e565b67ffffffffffffffff811115611e7357611e726114b4565b5b611e7d8254611c74565b611e88828285611dc4565b600060209050601f831160018114611ebb5760008415611ea9578287015190505b611eb38582611e35565b865550611f1b565b601f198416611ec986611ca5565b60005b82811015611ef157848901518255600182019150602085019450602081019050611ecc565b86831015611f0e5784890151611f0a601f891682611e17565b8355505b6001600288020188555050505b505050505050565b611f2c81611463565b82525050565b600082825260208201905092915050565b6000611f4e8261181e565b611f588185611f32565b9350611f6881856020860161183a565b611f71816114a3565b840191505092915050565b611f85816115df565b82525050565b600061010082019050611fa1600083018b611f23565b8181036020830152611fb3818a611f43565b90508181036040830152611fc78189611f43565b90508181036060830152611fdb8188611f43565b90508181036080830152611fef8187611f43565b905081810360a08301526120038186611f43565b905061201260c0830185611f7c565b61201f60e0830184611f7c565b9998505050505050505050565b60006060820190506120416000830186611f23565b61204e6020830185611f7c565b61205b6040830184611f7c565b949350505050565b600061016082019050612079600083018e611f23565b818103602083015261208b818d611f43565b9050818103604083015261209f818c611f43565b905081810360608301526120b3818b611f43565b905081810360808301526120c7818a611f43565b905081810360a08301526120db8189611f43565b905081810360c08301526120ef8188611f43565b90506120fe60e0830187611f7c565b61210c610100830186611f7c565b61211a610120830185611f23565b612128610140830184611f23565b9c9b505050505050505050505050565b7f4e487b7100000000000000000000000000000000000000000000000000000000600052601160045260246000fd5b600061217282611463565b91507fffffffffffffffffffffffffffffffffffffffffffffffffffffffffffffffff82036121a4576121a3612138565b5b600182019050919050565b60006060820190506121c46000830186611f23565b6121d16020830185611f23565b6121de6040830184611f7c565b949350505050565b600060208201905081810360008301526122008184611f43565b905092915050565b612211816117fd565b82525050565b600060808201905081810360008301526122318187611f43565b90506122406020830186612208565b81810360408301526122528185611f43565b905081810360608301526122668184611f43565b905095945050505050565b6000604082019050818103600083015261228b8185611f43565b905061229a6020830184612208565b9392505050565b600060408201905081810360008301526122bb8185611f43565b90506122ca6020830184611f23565b9392505050565b60006080820190506122e66000830187612208565b81810360208301526122f88186611f43565b90506123076040830185611f23565b81810360608301526123198184611f43565b90509594505050505056fea2646970667358221220cde56f3d56206fee1a75a78c26234a35cb59dc5771795ee6e63b93b80bea6f2d64736f6c6343000811003354686973206973206d7920566f69636520506c6174666f726d20636f6e74726163742e",
  "linkReferences": {},
  "deployedLinkReferences": {}
}