{
  "_format": "hh-sol-artifact-1",
  "contractName": "VoicePlatform",
  "sourceName": "contracts/VoicePlatform.sol",
  "abi": [
    {
      "inputs": [],
      "stateMutability": "nonpayable",
      "type": "constructor"
    },
    {
      "anonymous": false,
      "inputs": [
        {
          "indexed": false,
          "internalType": "uint256",
          "name": "id",
          "type": "uint256"
        },
        {
          "indexed": false,
          "internalType": "bool",
          "name": "isPublic",
          "type": "bool"
        },
        {
          "indexed": false,
          "internalType": "bool",
          "name": "flagCompleted",
          "type": "bool"
        }
      ],
      "name": "NewChangePublic",
      "type": "event"
    },
    {
      "anonymous": false,
      "inputs": [
        {
          "indexed": false,
          "internalType": "uint256",
          "name": "id",
          "type": "uint256"
        },
        {
          "indexed": false,
          "internalType": "uint256",
          "name": "commentID",
          "type": "uint256"
        },
        {
          "indexed": true,
          "internalType": "address",
          "name": "from",
          "type": "address"
        },
        {
          "indexed": false,
          "internalType": "string",
          "name": "username",
          "type": "string"
        },
        {
          "indexed": false,
          "internalType": "string",
          "name": "comment",
          "type": "string"
        },
        {
          "indexed": false,
          "internalType": "bool",
          "name": "isPublic",
          "type": "bool"
        },
        {
          "indexed": false,
          "internalType": "uint256",
          "name": "timestamp",
          "type": "uint256"
        }
      ],
      "name": "NewComment",
      "type": "event"
    },
    {
      "anonymous": false,
      "inputs": [
        {
          "indexed": false,
          "internalType": "uint256",
          "name": "id",
          "type": "uint256"
        },
        {
          "indexed": true,
          "internalType": "address",
          "name": "from",
          "type": "address"
        },
        {
          "indexed": false,
          "internalType": "string",
          "name": "username",
          "type": "string"
        },
        {
          "indexed": false,
          "internalType": "string",
          "name": "gender",
          "type": "string"
        },
        {
          "indexed": false,
          "internalType": "string",
          "name": "genre",
          "type": "string"
        },
        {
          "indexed": false,
          "internalType": "string",
          "name": "title",
          "type": "string"
        },
        {
          "indexed": false,
          "internalType": "string",
          "name": "description",
          "type": "string"
        },
        {
          "indexed": false,
          "internalType": "bool",
          "name": "isPublic",
          "type": "bool"
        },
        {
          "indexed": false,
          "internalType": "bool",
          "name": "haveAuthorityToComment",
          "type": "bool"
        }
      ],
      "name": "NewEditedVoice",
      "type": "event"
    },
    {
      "anonymous": false,
      "inputs": [
        {
          "indexed": false,
          "internalType": "uint256",
          "name": "id",
          "type": "uint256"
        },
        {
          "indexed": false,
          "internalType": "uint256",
          "name": "totallikes",
          "type": "uint256"
        },
        {
          "indexed": false,
          "internalType": "bool",
          "name": "flagCompleted",
          "type": "bool"
        }
      ],
      "name": "NewLike",
      "type": "event"
    },
    {
      "anonymous": false,
      "inputs": [
        {
          "indexed": false,
          "internalType": "uint256",
          "name": "id",
          "type": "uint256"
        },
        {
          "indexed": true,
          "internalType": "address",
          "name": "from",
          "type": "address"
        },
        {
          "indexed": false,
          "internalType": "string",
          "name": "username",
          "type": "string"
        },
        {
          "indexed": false,
          "internalType": "string",
          "name": "gender",
          "type": "string"
        },
        {
          "indexed": false,
          "internalType": "string",
          "name": "genre",
          "type": "string"
        },
        {
          "indexed": false,
          "internalType": "string",
          "name": "voice",
          "type": "string"
        },
        {
          "indexed": false,
          "internalType": "string",
          "name": "title",
          "type": "string"
        },
        {
          "indexed": false,
          "internalType": "string",
          "name": "description",
          "type": "string"
        },
        {
          "indexed": false,
          "internalType": "bool",
          "name": "isPublic",
          "type": "bool"
        },
        {
          "indexed": false,
          "internalType": "bool",
          "name": "haveAuthorityToComment",
          "type": "bool"
        },
        {
          "indexed": false,
          "internalType": "uint256",
          "name": "timestamp",
          "type": "uint256"
        },
        {
          "indexed": false,
          "internalType": "uint256",
          "name": "totallikes",
          "type": "uint256"
        },
        {
          "indexed": false,
          "internalType": "uint256",
          "name": "totalcomments",
          "type": "uint256"
        }
      ],
      "name": "NewVoice",
      "type": "event"
    },
    {
      "inputs": [
        {
          "internalType": "uint256",
          "name": "_num",
          "type": "uint256"
        }
      ],
      "name": "changePublic",
      "outputs": [],
      "stateMutability": "nonpayable",
      "type": "function"
    },
    {
      "inputs": [
        {
          "internalType": "uint256",
          "name": "_num",
          "type": "uint256"
        },
        {
          "internalType": "string",
          "name": "_username",
          "type": "string"
        },
        {
          "internalType": "string",
          "name": "_comment",
          "type": "string"
        }
      ],
      "name": "comment",
      "outputs": [],
      "stateMutability": "nonpayable",
      "type": "function"
    },
    {
      "inputs": [
        {
          "internalType": "uint256",
          "name": "_num",
          "type": "uint256"
        },
        {
          "internalType": "string",
          "name": "_username",
          "type": "string"
        },
        {
          "internalType": "string",
          "name": "_gender",
          "type": "string"
        },
        {
          "internalType": "string",
          "name": "_genre",
          "type": "string"
        },
        {
          "internalType": "string",
          "name": "_title",
          "type": "string"
        },
        {
          "internalType": "string",
          "name": "_description",
          "type": "string"
        },
        {
          "internalType": "bool",
          "name": "_isPublic",
          "type": "bool"
        },
        {
          "internalType": "bool",
          "name": "_haveAuthorityToComment",
          "type": "bool"
        }
      ],
      "name": "edit",
      "outputs": [],
      "stateMutability": "nonpayable",
      "type": "function"
    },
    {
      "inputs": [
        {
          "internalType": "string",
          "name": "_username",
          "type": "string"
        }
      ],
      "name": "edit",
      "outputs": [],
      "stateMutability": "nonpayable",
      "type": "function"
    },
    {
      "inputs": [],
      "name": "getAllComments",
      "outputs": [
        {
          "components": [
            {
              "internalType": "uint256",
              "name": "id",
              "type": "uint256"
            },
            {
              "internalType": "uint256",
              "name": "commentID",
              "type": "uint256"
            },
            {
              "internalType": "address",
              "name": "commenter",
              "type": "address"
            },
            {
              "internalType": "string",
              "name": "username",
              "type": "string"
            },
            {
              "internalType": "string",
              "name": "comment",
              "type": "string"
            },
            {
              "internalType": "bool",
              "name": "isPublic",
              "type": "bool"
            },
            {
              "internalType": "uint256",
              "name": "timestamp",
              "type": "uint256"
            }
          ],
          "internalType": "struct VoicePlatform.Comment[]",
          "name": "",
          "type": "tuple[]"
        }
      ],
      "stateMutability": "view",
      "type": "function"
    },
    {
      "inputs": [],
      "name": "getAllVoices",
      "outputs": [
        {
          "components": [
            {
              "internalType": "uint256",
              "name": "id",
              "type": "uint256"
            },
            {
              "internalType": "address",
              "name": "poster",
              "type": "address"
            },
            {
              "internalType": "string",
              "name": "username",
              "type": "string"
            },
            {
              "internalType": "string",
              "name": "gender",
              "type": "string"
            },
            {
              "internalType": "string",
              "name": "genre",
              "type": "string"
            },
            {
              "internalType": "string",
              "name": "voice",
              "type": "string"
            },
            {
              "internalType": "string",
              "name": "title",
              "type": "string"
            },
            {
              "internalType": "string",
              "name": "description",
              "type": "string"
            },
            {
              "internalType": "bool",
              "name": "isPublic",
              "type": "bool"
            },
            {
              "internalType": "bool",
              "name": "haveAuthorityToComment",
              "type": "bool"
            },
            {
              "internalType": "uint256",
              "name": "timestamp",
              "type": "uint256"
            },
            {
              "internalType": "uint256",
              "name": "totallikes",
              "type": "uint256"
            },
            {
              "internalType": "uint256",
              "name": "totalcomments",
              "type": "uint256"
            }
          ],
          "internalType": "struct VoicePlatform.Voice[]",
          "name": "",
          "type": "tuple[]"
        }
      ],
      "stateMutability": "view",
      "type": "function"
    },
    {
      "inputs": [
        {
          "internalType": "uint256",
          "name": "_num",
          "type": "uint256"
        }
      ],
      "name": "getTotalComments",
      "outputs": [
        {
          "internalType": "uint256",
          "name": "",
          "type": "uint256"
        }
      ],
      "stateMutability": "view",
      "type": "function"
    },
    {
      "inputs": [
        {
          "internalType": "uint256",
          "name": "_num",
          "type": "uint256"
        }
      ],
      "name": "like",
      "outputs": [],
      "stateMutability": "nonpayable",
      "type": "function"
    },
    {
      "inputs": [
        {
          "internalType": "string",
          "name": "_username",
          "type": "string"
        },
        {
          "internalType": "string",
          "name": "_gender",
          "type": "string"
        },
        {
          "internalType": "string",
          "name": "_genre",
          "type": "string"
        },
        {
          "internalType": "string",
          "name": "_voice",
          "type": "string"
        },
        {
          "internalType": "string",
          "name": "_title",
          "type": "string"
        },
        {
          "internalType": "string",
          "name": "_description",
          "type": "string"
        },
        {
          "internalType": "bool",
          "name": "_isPublic",
          "type": "bool"
        },
        {
          "internalType": "bool",
          "name": "_haveAuthorityToComment",
          "type": "bool"
        }
      ],
      "name": "post",
      "outputs": [],
      "stateMutability": "nonpayable",
      "type": "function"
    },
    {
      "inputs": [
        {
          "internalType": "string",
          "name": "_username",
          "type": "string"
        }
      ],
      "name": "register",
      "outputs": [],
      "stateMutability": "nonpayable",
      "type": "function"
    }
  ],
  "bytecode": "0x60806040523480156200001157600080fd5b506200004160405180606001604052806023815260200162002e3f602391396200004760201b620016191760201c565b620001d1565b620000e7816040516024016200005e9190620001ad565b6040516020818303038152906040527f41304fac000000000000000000000000000000000000000000000000000000007bffffffffffffffffffffffffffffffffffffffffffffffffffffffff19166020820180517bffffffffffffffffffffffffffffffffffffffffffffffffffffffff8381831617835250505050620000ea60201b60201c565b50565b60008151905060006a636f6e736f6c652e6c6f679050602083016000808483855afa5050505050565b600081519050919050565b600082825260208201905092915050565b60005b838110156200014f57808201518184015260208101905062000132565b60008484015250505050565b6000601f19601f8301169050919050565b6000620001798262000113565b6200018581856200011e565b9350620001978185602086016200012f565b620001a2816200015b565b840191505092915050565b60006020820190508181036000830152620001c981846200016c565b905092915050565b612c5e80620001e16000396000f3fe608060405234801561001057600080fd5b506004361061009e5760003560e01c8063b26f1f6f11610066578063b26f1f6f14610145578063d7878bf514610163578063e42aafd11461017f578063e82935da1461019b578063f2c298be146101b75761009e565b80630c0d9979146100a357806310440904146100bf578063587520fa146100dd578063928570871461010d57806395b80d1114610129575b600080fd5b6100bd60048036038101906100b89190611be2565b6101d3565b005b6100c7610464565b6040516100d49190611f67565b60405180910390f35b6100f760048036038101906100f29190611f89565b610676565b6040516101049190611fc5565b60405180910390f35b61012760048036038101906101229190611fe0565b610693565b005b610143600480360381019061013e9190612029565b6106e6565b005b61014d610921565b60405161015a91906122b2565b60405180910390f35b61017d60048036038101906101789190611f89565b610da1565b005b610199600480360381019061019491906122d4565b610ea7565b005b6101b560048036038101906101b09190611f89565b61123d565b005b6101d160048036038101906101cc9190611fe0565b611408565b005b6102146040518060400160405280601881526020017f25732065646974656420772f20766f69636520257320257300000000000000008152503386866116b2565b866008898154811061022957610228612432565b5b90600052602060002090600c02016002019081610246919061266d565b50856008898154811061025c5761025b612432565b5b90600052602060002090600c02016003019081610279919061266d565b50846008898154811061028f5761028e612432565b5b90600052602060002090600c020160040190816102ac919061266d565b5083600889815481106102c2576102c1612432565b5b90600052602060002090600c020160060190816102df919061266d565b5082600889815481106102f5576102f4612432565b5b90600052602060002090600c02016007019081610312919061266d565b50816008898154811061032857610327612432565b5b90600052602060002090600c020160080160006101000a81548160ff021916908315150217905550806008898154811061036557610364612432565b5b90600052602060002090600c020160080160016101000a81548160ff0219169083151502179055506000600560003373ffffffffffffffffffffffffffffffffffffffff1673ffffffffffffffffffffffffffffffffffffffff1681526020019081526020016000209050828160000160008b815260200190815260200160002060006101000a81548160ff0219169083151502179055503373ffffffffffffffffffffffffffffffffffffffff167fbe94ea38ad44e52ba048a0ddfaaf0d526afae9d247a8604463fd5a244f79f2a28a8a8a8a8a8a8a8a604051610451989796959493929190612798565b60405180910390a2505050505050505050565b60606009805480602002602001604051908101604052809291908181526020016000905b8282101561066d57838290600052602060002090600702016040518060e001604052908160008201548152602001600182015481526020016002820160009054906101000a900473ffffffffffffffffffffffffffffffffffffffff1673ffffffffffffffffffffffffffffffffffffffff1673ffffffffffffffffffffffffffffffffffffffff16815260200160038201805461052590612490565b80601f016020809104026020016040519081016040528092919081815260200182805461055190612490565b801561059e5780601f106105735761010080835404028352916020019161059e565b820191906000526020600020905b81548152906001019060200180831161058157829003601f168201915b505050505081526020016004820180546105b790612490565b80601f01602080910402602001604051908101604052809291908181526020018280546105e390612490565b80156106305780601f1061060557610100808354040283529160200191610630565b820191906000526020600020905b81548152906001019060200180831161061357829003601f168201915b505050505081526020016005820160009054906101000a900460ff1615151515815260200160068201548152505081526020019060010190610488565b50505050905090565b600060076000838152602001908152602001600020549050919050565b80600360003373ffffffffffffffffffffffffffffffffffffffff1673ffffffffffffffffffffffffffffffffffffffff16815260200190815260200160002060020190816106e2919061266d565b5050565b60006007600085815260200190815260200160002054905061073e6040518060400160405280601a81526020017f257320636f6d6d656e74656420772f20636f6d6d656e742025730000000000008152503384611754565b60096040518060e001604052808681526020018381526020013373ffffffffffffffffffffffffffffffffffffffff168152602001858152602001848152602001600115158152602001428152509080600181540180825580915050600190039060005260206000209060070201600090919091909150600082015181600001556020820151816001015560408201518160020160006101000a81548173ffffffffffffffffffffffffffffffffffffffff021916908373ffffffffffffffffffffffffffffffffffffffff1602179055506060820151816003019081610825919061266d565b50608082015181600401908161083b919061266d565b5060a08201518160050160006101000a81548160ff02191690831515021790555060c0820151816006015550503373ffffffffffffffffffffffffffffffffffffffff167f0c576cfbcebdf58af885fbb52c870d8de0ce4cf144b2aa78e0927ac374d5cbcf858386866001426040516108b996959493929190612839565b60405180910390a26001816108ce91906128d7565b60076000868152602001908152602001600020819055506001816108f291906128d7565b6008858154811061090657610905612432565b5b90600052602060002090600c0201600b018190555050505050565b60606008805480602002602001604051908101604052809291908181526020016000905b82821015610d9857838290600052602060002090600c0201604051806101a0016040529081600082015481526020016001820160009054906101000a900473ffffffffffffffffffffffffffffffffffffffff1673ffffffffffffffffffffffffffffffffffffffff1673ffffffffffffffffffffffffffffffffffffffff1681526020016002820180546109d990612490565b80601f0160208091040260200160405190810160405280929190818152602001828054610a0590612490565b8015610a525780601f10610a2757610100808354040283529160200191610a52565b820191906000526020600020905b815481529060010190602001808311610a3557829003601f168201915b50505050508152602001600382018054610a6b90612490565b80601f0160208091040260200160405190810160405280929190818152602001828054610a9790612490565b8015610ae45780601f10610ab957610100808354040283529160200191610ae4565b820191906000526020600020905b815481529060010190602001808311610ac757829003601f168201915b50505050508152602001600482018054610afd90612490565b80601f0160208091040260200160405190810160405280929190818152602001828054610b2990612490565b8015610b765780601f10610b4b57610100808354040283529160200191610b76565b820191906000526020600020905b815481529060010190602001808311610b5957829003601f168201915b50505050508152602001600582018054610b8f90612490565b80601f0160208091040260200160405190810160405280929190818152602001828054610bbb90612490565b8015610c085780601f10610bdd57610100808354040283529160200191610c08565b820191906000526020600020905b815481529060010190602001808311610beb57829003601f168201915b50505050508152602001600682018054610c2190612490565b80601f0160208091040260200160405190810160405280929190818152602001828054610c4d90612490565b8015610c9a5780601f10610c6f57610100808354040283529160200191610c9a565b820191906000526020600020905b815481529060010190602001808311610c7d57829003601f168201915b50505050508152602001600782018054610cb390612490565b80601f0160208091040260200160405190810160405280929190818152602001828054610cdf90612490565b8015610d2c5780601f10610d0157610100808354040283529160200191610d2c565b820191906000526020600020905b815481529060010190602001808311610d0f57829003601f168201915b505050505081526020016008820160009054906101000a900460ff161515151581526020016008820160019054906101000a900460ff1615151515815260200160098201548152602001600a8201548152602001600b8201548152505081526020019060010190610945565b50505050905090565b60088181548110610db557610db4612432565b5b90600052602060002090600c020160080160009054906101000a900460ff161560088281548110610de957610de8612432565b5b90600052602060002090600c020160080160006101000a81548160ff0219169083151502179055507fd517623781a3d33983ed048b4f0c439106c0ae5ecd946bc2ac41e5d736fb8bd660088281548110610e4657610e45612432565b5b90600052602060002090600c02016000015460088381548110610e6c57610e6b612432565b5b90600052602060002090600c020160080160009054906101000a900460ff166001604051610e9c9392919061290b565b60405180910390a150565b600260003373ffffffffffffffffffffffffffffffffffffffff1673ffffffffffffffffffffffffffffffffffffffff16815260200190815260200160002060009054906101000a900460ff1615610f0757610f0288610693565b610f11565b610f1088611408565b5b6000610f1d60006117f3565b9050610f606040518060400160405280601881526020017f257320706f7374656420772f20766f69636520257320257300000000000000008152503387876116b2565b6008604051806101a001604052808381526020013373ffffffffffffffffffffffffffffffffffffffff1681526020018b81526020018a81526020018981526020018881526020018781526020018681526020018515158152602001841515815260200142815260200160008152602001600081525090806001815401808255809150506001900390600052602060002090600c02016000909190919091506000820151816000015560208201518160010160006101000a81548173ffffffffffffffffffffffffffffffffffffffff021916908373ffffffffffffffffffffffffffffffffffffffff1602179055506040820151816002019081611065919061266d565b50606082015181600301908161107b919061266d565b506080820151816004019081611091919061266d565b5060a08201518160050190816110a7919061266d565b5060c08201518160060190816110bd919061266d565b5060e08201518160070190816110d3919061266d565b506101008201518160080160006101000a81548160ff0219169083151502179055506101208201518160080160016101000a81548160ff021916908315150217905550610140820151816009015561016082015181600a015561018082015181600b015550506000600560003373ffffffffffffffffffffffffffffffffffffffff1673ffffffffffffffffffffffffffffffffffffffff16815260200190815260200160002090508381600001600084815260200190815260200160002060006101000a81548160ff021916908315150217905550600060076000848152602001908152602001600020819055503373ffffffffffffffffffffffffffffffffffffffff167f4e243ea148245a9e179bb1c7c1e750d61a4cce7a8bbd572e797f707867853d1d838c8c8c8c8c8c8c8c4260008060405161121f9c9b9a99989796959493929190612942565b60405180910390a26112316000611801565b50505050505050505050565b61127c6040518060400160405280601b81526020017f2573206c696b65656420772f2061742074686520636f6d6d656e74000000000081525033611817565b6112e06040518060400160405280601181526020017f746f74616c206c696b6573206973202569000000000000000000000000000000815250600883815481106112c9576112c8612432565b5b90600052602060002090600c0201600a01546118b3565b600881815481106112f4576112f3612432565b5b90600052602060002090600c0201600a01600081548092919061131690612a26565b919050555061137f6040518060400160405280601181526020017f746f74616c206c696b65732069732025690000000000000000000000000000008152506008838154811061136857611367612432565b5b90600052602060002090600c0201600a01546118b3565b7f8d6aaa7c4a328f24ad373823b75962d81ec0f36ddb11e76dc5c09655737cd4f2600882815481106113b4576113b3612432565b5b90600052602060002090600c020160000154600883815481106113da576113d9612432565b5b90600052602060002090600c0201600a015460016040516113fd93929190612a6e565b60405180910390a150565b600061141460016117f3565b905061148c336040518060400160405280600b81526020017f20706f7374656420772f20000000000000000000000000000000000000000000815250836040518060400160405280600781526020017f206461746173200000000000000000000000000000000000000000000000000081525061194f565b61149582611619565b60405180606001604052808281526020013373ffffffffffffffffffffffffffffffffffffffff16815260200183815250600360003373ffffffffffffffffffffffffffffffffffffffff1673ffffffffffffffffffffffffffffffffffffffff1681526020019081526020016000206000820151816000015560208201518160010160006101000a81548173ffffffffffffffffffffffffffffffffffffffff021916908373ffffffffffffffffffffffffffffffffffffffff160217905550604082015181600201908161156b919061266d565b509050506001600260003373ffffffffffffffffffffffffffffffffffffffff1673ffffffffffffffffffffffffffffffffffffffff16815260200190815260200160002060006101000a81548160ff02191690831515021790555080600460003373ffffffffffffffffffffffffffffffffffffffff1673ffffffffffffffffffffffffffffffffffffffff168152602001908152602001600020819055506116156001611801565b5050565b6116af8160405160240161162d9190612aa5565b6040516020818303038152906040527f41304fac000000000000000000000000000000000000000000000000000000007bffffffffffffffffffffffffffffffffffffffffffffffffffffffff19166020820180517bffffffffffffffffffffffffffffffffffffffffffffffffffffffff83818316178352505050506119f1565b50565b61174e848484846040516024016116cc9493929190612ad6565b6040516020818303038152906040527f245986f2000000000000000000000000000000000000000000000000000000007bffffffffffffffffffffffffffffffffffffffffffffffffffffffff19166020820180517bffffffffffffffffffffffffffffffffffffffffffffffffffffffff83818316178352505050506119f1565b50505050565b6117ee83838360405160240161176c93929190612b30565b6040516020818303038152906040527fe0e9ad4f000000000000000000000000000000000000000000000000000000007bffffffffffffffffffffffffffffffffffffffffffffffffffffffff19166020820180517bffffffffffffffffffffffffffffffffffffffffffffffffffffffff83818316178352505050506119f1565b505050565b600081600001549050919050565b6001816000016000828254019250508190555050565b6118af828260405160240161182d929190612b75565b6040516020818303038152906040527f319af333000000000000000000000000000000000000000000000000000000007bffffffffffffffffffffffffffffffffffffffffffffffffffffffff19166020820180517bffffffffffffffffffffffffffffffffffffffffffffffffffffffff83818316178352505050506119f1565b5050565b61194b82826040516024016118c9929190612ba5565b6040516020818303038152906040527fb60e72cc000000000000000000000000000000000000000000000000000000007bffffffffffffffffffffffffffffffffffffffffffffffffffffffff19166020820180517bffffffffffffffffffffffffffffffffffffffffffffffffffffffff83818316178352505050506119f1565b5050565b6119eb848484846040516024016119699493929190612bd5565b6040516020818303038152906040527f448830a8000000000000000000000000000000000000000000000000000000007bffffffffffffffffffffffffffffffffffffffffffffffffffffffff19166020820180517bffffffffffffffffffffffffffffffffffffffffffffffffffffffff83818316178352505050506119f1565b50505050565b60008151905060006a636f6e736f6c652e6c6f679050602083016000808483855afa5050505050565b6000604051905090565b600080fd5b600080fd5b6000819050919050565b611a4181611a2e565b8114611a4c57600080fd5b50565b600081359050611a5e81611a38565b92915050565b600080fd5b600080fd5b6000601f19601f8301169050919050565b7f4e487b7100000000000000000000000000000000000000000000000000000000600052604160045260246000fd5b611ab782611a6e565b810181811067ffffffffffffffff82111715611ad657611ad5611a7f565b5b80604052505050565b6000611ae9611a1a565b9050611af58282611aae565b919050565b600067ffffffffffffffff821115611b1557611b14611a7f565b5b611b1e82611a6e565b9050602081019050919050565b82818337600083830152505050565b6000611b4d611b4884611afa565b611adf565b905082815260208101848484011115611b6957611b68611a69565b5b611b74848285611b2b565b509392505050565b600082601f830112611b9157611b90611a64565b5b8135611ba1848260208601611b3a565b91505092915050565b60008115159050919050565b611bbf81611baa565b8114611bca57600080fd5b50565b600081359050611bdc81611bb6565b92915050565b600080600080600080600080610100898b031215611c0357611c02611a24565b5b6000611c118b828c01611a4f565b985050602089013567ffffffffffffffff811115611c3257611c31611a29565b5b611c3e8b828c01611b7c565b975050604089013567ffffffffffffffff811115611c5f57611c5e611a29565b5b611c6b8b828c01611b7c565b965050606089013567ffffffffffffffff811115611c8c57611c8b611a29565b5b611c988b828c01611b7c565b955050608089013567ffffffffffffffff811115611cb957611cb8611a29565b5b611cc58b828c01611b7c565b94505060a089013567ffffffffffffffff811115611ce657611ce5611a29565b5b611cf28b828c01611b7c565b93505060c0611d038b828c01611bcd565b92505060e0611d148b828c01611bcd565b9150509295985092959890939650565b600081519050919050565b600082825260208201905092915050565b6000819050602082019050919050565b611d5981611a2e565b82525050565b600073ffffffffffffffffffffffffffffffffffffffff82169050919050565b6000611d8a82611d5f565b9050919050565b611d9a81611d7f565b82525050565b600081519050919050565b600082825260208201905092915050565b60005b83811015611dda578082015181840152602081019050611dbf565b60008484015250505050565b6000611df182611da0565b611dfb8185611dab565b9350611e0b818560208601611dbc565b611e1481611a6e565b840191505092915050565b611e2881611baa565b82525050565b600060e083016000830151611e466000860182611d50565b506020830151611e596020860182611d50565b506040830151611e6c6040860182611d91565b5060608301518482036060860152611e848282611de6565b91505060808301518482036080860152611e9e8282611de6565b91505060a0830151611eb360a0860182611e1f565b5060c0830151611ec660c0860182611d50565b508091505092915050565b6000611edd8383611e2e565b905092915050565b6000602082019050919050565b6000611efd82611d24565b611f078185611d2f565b935083602082028501611f1985611d40565b8060005b85811015611f555784840389528151611f368582611ed1565b9450611f4183611ee5565b925060208a01995050600181019050611f1d565b50829750879550505050505092915050565b60006020820190508181036000830152611f818184611ef2565b905092915050565b600060208284031215611f9f57611f9e611a24565b5b6000611fad84828501611a4f565b91505092915050565b611fbf81611a2e565b82525050565b6000602082019050611fda6000830184611fb6565b92915050565b600060208284031215611ff657611ff5611a24565b5b600082013567ffffffffffffffff81111561201457612013611a29565b5b61202084828501611b7c565b91505092915050565b60008060006060848603121561204257612041611a24565b5b600061205086828701611a4f565b935050602084013567ffffffffffffffff81111561207157612070611a29565b5b61207d86828701611b7c565b925050604084013567ffffffffffffffff81111561209e5761209d611a29565b5b6120aa86828701611b7c565b9150509250925092565b600081519050919050565b600082825260208201905092915050565b6000819050602082019050919050565b60006101a0830160008301516120f96000860182611d50565b50602083015161210c6020860182611d91565b50604083015184820360408601526121248282611de6565b9150506060830151848203606086015261213e8282611de6565b915050608083015184820360808601526121588282611de6565b91505060a083015184820360a08601526121728282611de6565b91505060c083015184820360c086015261218c8282611de6565b91505060e083015184820360e08601526121a68282611de6565b9150506101008301516121bd610100860182611e1f565b506101208301516121d2610120860182611e1f565b506101408301516121e7610140860182611d50565b506101608301516121fc610160860182611d50565b50610180830151612211610180860182611d50565b508091505092915050565b600061222883836120e0565b905092915050565b6000602082019050919050565b6000612248826120b4565b61225281856120bf565b935083602082028501612264856120d0565b8060005b858110156122a05784840389528151612281858261221c565b945061228c83612230565b925060208a01995050600181019050612268565b50829750879550505050505092915050565b600060208201905081810360008301526122cc818461223d565b905092915050565b600080600080600080600080610100898b0312156122f5576122f4611a24565b5b600089013567ffffffffffffffff81111561231357612312611a29565b5b61231f8b828c01611b7c565b985050602089013567ffffffffffffffff8111156123405761233f611a29565b5b61234c8b828c01611b7c565b975050604089013567ffffffffffffffff81111561236d5761236c611a29565b5b6123798b828c01611b7c565b965050606089013567ffffffffffffffff81111561239a57612399611a29565b5b6123a68b828c01611b7c565b955050608089013567ffffffffffffffff8111156123c7576123c6611a29565b5b6123d38b828c01611b7c565b94505060a089013567ffffffffffffffff8111156123f4576123f3611a29565b5b6124008b828c01611b7c565b93505060c06124118b828c01611bcd565b92505060e06124228b828c01611bcd565b9150509295985092959890939650565b7f4e487b7100000000000000000000000000000000000000000000000000000000600052603260045260246000fd5b7f4e487b7100000000000000000000000000000000000000000000000000000000600052602260045260246000fd5b600060028204905060018216806124a857607f821691505b6020821081036124bb576124ba612461565b5b50919050565b60008190508160005260206000209050919050565b60006020601f8301049050919050565b600082821b905092915050565b6000600883026125237fffffffffffffffffffffffffffffffffffffffffffffffffffffffffffffffff826124e6565b61252d86836124e6565b95508019841693508086168417925050509392505050565b6000819050919050565b600061256a61256561256084611a2e565b612545565b611a2e565b9050919050565b6000819050919050565b6125848361254f565b61259861259082612571565b8484546124f3565b825550505050565b600090565b6125ad6125a0565b6125b881848461257b565b505050565b5b818110156125dc576125d16000826125a5565b6001810190506125be565b5050565b601f821115612621576125f2816124c1565b6125fb846124d6565b8101602085101561260a578190505b61261e612616856124d6565b8301826125bd565b50505b505050565b600082821c905092915050565b600061264460001984600802612626565b1980831691505092915050565b600061265d8383612633565b9150826002028217905092915050565b61267682611da0565b67ffffffffffffffff81111561268f5761268e611a7f565b5b6126998254612490565b6126a48282856125e0565b600060209050601f8311600181146126d757600084156126c5578287015190505b6126cf8582612651565b865550612737565b601f1984166126e5866124c1565b60005b8281101561270d578489015182556001820191506020850194506020810190506126e8565b8683101561272a5784890151612726601f891682612633565b8355505b6001600288020188555050505b505050505050565b600082825260208201905092915050565b600061275b82611da0565b612765818561273f565b9350612775818560208601611dbc565b61277e81611a6e565b840191505092915050565b61279281611baa565b82525050565b6000610100820190506127ae600083018b611fb6565b81810360208301526127c0818a612750565b905081810360408301526127d48189612750565b905081810360608301526127e88188612750565b905081810360808301526127fc8187612750565b905081810360a08301526128108186612750565b905061281f60c0830185612789565b61282c60e0830184612789565b9998505050505050505050565b600060c08201905061284e6000830189611fb6565b61285b6020830188611fb6565b818103604083015261286d8187612750565b905081810360608301526128818186612750565b90506128906080830185612789565b61289d60a0830184611fb6565b979650505050505050565b7f4e487b7100000000000000000000000000000000000000000000000000000000600052601160045260246000fd5b60006128e282611a2e565b91506128ed83611a2e565b9250828201905080821115612905576129046128a8565b5b92915050565b60006060820190506129206000830186611fb6565b61292d6020830185612789565b61293a6040830184612789565b949350505050565b600061018082019050612958600083018f611fb6565b818103602083015261296a818e612750565b9050818103604083015261297e818d612750565b90508181036060830152612992818c612750565b905081810360808301526129a6818b612750565b905081810360a08301526129ba818a612750565b905081810360c08301526129ce8189612750565b90506129dd60e0830188612789565b6129eb610100830187612789565b6129f9610120830186611fb6565b612a07610140830185611fb6565b612a15610160830184611fb6565b9d9c50505050505050505050505050565b6000612a3182611a2e565b91507fffffffffffffffffffffffffffffffffffffffffffffffffffffffffffffffff8203612a6357612a626128a8565b5b600182019050919050565b6000606082019050612a836000830186611fb6565b612a906020830185611fb6565b612a9d6040830184612789565b949350505050565b60006020820190508181036000830152612abf8184612750565b905092915050565b612ad081611d7f565b82525050565b60006080820190508181036000830152612af08187612750565b9050612aff6020830186612ac7565b8181036040830152612b118185612750565b90508181036060830152612b258184612750565b905095945050505050565b60006060820190508181036000830152612b4a8186612750565b9050612b596020830185612ac7565b8181036040830152612b6b8184612750565b9050949350505050565b60006040820190508181036000830152612b8f8185612750565b9050612b9e6020830184612ac7565b9392505050565b60006040820190508181036000830152612bbf8185612750565b9050612bce6020830184611fb6565b9392505050565b6000608082019050612bea6000830187612ac7565b8181036020830152612bfc8186612750565b9050612c0b6040830185611fb6565b8181036060830152612c1d8184612750565b90509594505050505056fea2646970667358221220d8d01c623d01b705f485ed7dd966fd13f7be7495a5b8a19d5b2192b710a037df64736f6c6343000811003354686973206973206d7920566f69636520506c6174666f726d20636f6e74726163742e",
  "linkReferences": {},
  "deployedLinkReferences": {}
}